:020000040800F2
:1000000038050020A1010008B71B00087B1A000872
:10001000B51B000849030008ED220008000000009D
:10002000000000000000000000000000651D000846
:100030004B03000800000000B91B0008671D000802
:10004000BB010008BB010008BB010008BB010008A0
:10005000BB010008BB010008BB010008BB01000890
:10006000BB010008BB010008BB010008BB01000880
:10007000BB010008BB010008BB010008BB01000870
:10008000BB010008BB010008BB010008BB01000860
:10009000BB010008BB010008BB010008BB01000850
:1000A000BB010008BB010008BB010008BB01000840
:1000B000BB0100080000000000000000BB010008B8
:1000C000BB0100080000000000000000BB010008A8
:1000D00000000000BB010008BB0100080000000098
:1000E000BB010008BB010008000000000000000088
:1000F0000000000000000000000000000000000000
:10010000000000000000000000000000BB0100082B
:100110000000000000000000BB010008BB01000857
:10012000BB010008BB010008BB010008BB010008BF
:10013000BB010008000000000000000000000000FB
:10014000BB010008BB010008BB010008BB0100089F
:10015000BB010008BB010008BB010008BB0100088F
:10016000BB010008BB010008BB0100080000000043
:10017000BB010008BB0100080000000000000000F7
:10018000BB010008BB010008BB010008DFF80CD070
:1001900000F094F800480047BD240008380500200E
:1001A0000648804706480047FEE7FEE7FEE7FEE711
:1001B000FEE7FEE7FEE7FEE7FEE7FEE7E51D0008D7
:1001C0008D0100082DE9F05F0546002092469B4610
:1001D00088460646814640241BE02846414647465D
:1001E000224600F05AF853465A46C01A914110D39D
:1001F00011461846224600F041F82D1A67EB010817
:100200004F4622460120002100F038F817EB000984
:100210004E41201EA4F10104DFDC484631462A4647
:10022000434600F000B830BCBDE8C09FD2B201E048
:1002300000F8012B491EFBD270470022F6E710B5EB
:1002400013460A4604461946FFF7F0FF204610BD44
:1002500030B50B46014600202022012409E021FA96
:1002600002F59D4205D303FA02F5491B04FA02F593
:100270002844151EA2F10102F1DC30BD202A04DB66
:10028000203A00FA02F1002070479140C2F12003A9
:1002900020FA03F3194390407047202A04DB203AE8
:1002A00021FA02F00021704721FA02F3D040C2F196
:1002B000200291400843194670470000064C074D44
:1002C00006E0E06840F0010394E807009847103426
:1002D000AC42F6D3FFF75EFF7425000894250008B2
:1002E00070B504460068816811F0010F28D181685B
:1002F000144A114215D18168D5432940491C8160B7
:1003000000F04CFC064616E0816811F0010F03D1A5
:1003100081682940491C816000F040FC801B022854
:1003200009D9606D40F010006065A06D40F00100DB
:10033000A065012070BD20680168C943C907E3D1E9
:10034000002070BD3F000080FEE770472DE9F84FA8
:1003500000270446009790F85000DFF8B0930D4650
:10036000B846012811D0012684F85060206801F0B9
:100370008FFB60B1606D40F0200060655FF00107A9
:1003800084F85080384600F0D7B90220FBE768684F
:100390000C23052812D8022807D0032807D00428E8
:1003A00007D0052807D0062007E06B6006E0122082
:1003B00003E0182001E04FF480706860D5E9002167
:1003C000206803EA91131844036B01F01F014FF0FA
:1003D0001F0C0CFA01FCC2F3846223EA0C038A406E
:1003E00013430363206801F053FB8246206801F049
:1003F0004BFB5AEA00001DD1AA682968206801F069
:100400004BFB20686969C268C2F3C1025200914087
:100410002A69042A0FD000EB82002B68026EDFF8F5
:10042000F0C203F0F84302EA0C020B431A4342F015
:100430000041016672E0002101F020FB40032068CA
:100440004FF0000172D001F019FB90FAA0F0B0FA61
:1004500080F1286842036ED090FAA0F0B0FA80F0E4
:10046000814204D100221146206801F024FB0121C1
:10047000206801F003FB400320684FF001015DD0CC
:1004800001F0FCFA90FAA0F0B0FA80F1286842037B
:1004900059D090FAA0F0B0FA80F0814204D1002245
:1004A0000121206801F007FB0221206801F0E6FA33
:1004B000400320684FF0020148D001F0DFFA90FAC3
:1004C000A0F0B0FA80F12868420344D090FAA0F07E
:1004D000B0FA80F0814204D100220221206801F0AC
:1004E000EAFA0321206801F0C9FA400320684FF0BE
:1004F000030133D001F0C2FA90FAA0F0B0FA80F113
:10050000286842032FD090FAA0F0B0FA80F0814220
:1005100004D100220321206801F0CDFA206881680F
:1005200011F0010F22D0ACE000E004E001F0A6FAE7
:10053000C0F384618DE7C0F3846091E701F09EFA17
:10054000C0F38461A2E7C0F38460A6E701F096FAE5
:10055000C0F38461B7E7C0F38460BBE701F08EFAB3
:10056000C0F38461CCE7C0F38460D0E72A7B2968BC
:1005700050F8B03FC1F3120C23EA0C0302F0180C40
:10058000644A22FA0CF20A4013430360E9684945C1
:1005900077D1286841031CD090FAA0F1B1FA81F11B
:1005A000491C01F01F0109294FEA403132D80029C6
:1005B00012D000BF90FAA0F1B1FA81F101F101016E
:1005C00001F01F0106FA01F609D100BFC0F38461F2
:1005D00009E0C0F38461E3E7C0F38461EEE790FAD9
:1005E000A0F1B1FA81F101F1010101F01F0146EA28
:1005F000816102D1C0F3846003E090FAA0F0B0FA08
:1006000080F000F1010000F01F0000EB400041EA23
:10061000005132E000290ED090FAA0F1B1FA81F138
:1006200001F1010101F01F0106FA01F606D100BF38
:10063000C0F3846106E0C0F38461F1E790FAA0F1B1
:10064000B1FA81F101F1010101F01F0146EA816176
:1006500002D1C0F3846003E090FAA0F0B0FA80F019
:1006600000F1010000F01F002B4A00EB400002EBFC
:10067000005041EA000141F00071AA68206801F0D1
:100680000BFA26482A6802423FF47AAE2448816871
:10069000244D254B01F0E071AA421AD10D0218D465
:1006A00022689A427FF46CAE826841F4000122F025
:1006B000E0720A4382601D481D490068B0FBF1F0FA
:1006C00000EB4000800000E0401E00900028FBD1BD
:1006D00056E6184DAA4207D1CD0105D422689A42A8
:1006E000F6D141F080710AE06FF00045EA42EFD1A7
:1006F0004A02EDD422689A42EAD141F4800182682C
:1007000022F0E0720A4382603AE6000000007F4077
:1007100000F0FF03FFFF0700000020FE000008803C
:1007200000030450000052C7000004500C000020D9
:10073000400D0300000084CB18BCBDE8E08F0068CA
:10074000006C7047F8B54FF0000504002E46009588
:1007500002D0606D10B107E00120F8BD204600F026
:10076000C7F8A66584F8506020688168C1F34071BD
:1007700019B18168564A1140816020688168C1F3CF
:10078000007179B98168534A114041F0805181600C
:10079000514852490068B0FBF1F000E0401E009063
:1007A0000028FBD120688168C1F3007141B9616DF7
:1007B00041F010016165A16D41F00101A1650125C4
:1007C00001F066F9616DC90600D430B1606D40F08A
:1007D0001000606501252846F8BD606D20F480702A
:1007E00040F0020060652068806810F0010F0BD1B6
:1007F0003B48806810F0010F06D13A486168826872
:1008000022F47C120A438260E168606B627E0843D6
:10081000A16841EA4231084394F8201040EA0140BF
:10082000012904D1A18C304A02EB41410843A16A5D
:1008300029B101F47071E26A014342EA01002168C2
:10084000CA682A4B1A400243CA60206801F020F9A6
:100850000646206801F018F9304315D1207E94F83F
:100860003010800340EA41022068C16844F202036C
:1008700099431143C16094F8380001280CD02068D6
:10088000016921F001010161206901282068016BE3
:1008900021F00F0111D013E0D4E90F010843D4E98E
:1008A00011121143084321680A6940F2FC739A430C
:1008B000104340F001000861E6E7E269521E11436F
:1008C0000163606D20F0020040F00100606582E786
:1008D000C0FFFF5FC0FFFF7F0C000020400D030042
:1008E00000000450000304500000FEFF07C0F0FFAA
:1008F00010B586B0044614216846FFF79EFC1149E6
:10090000206888421BD11048C16C41F40051C16479
:10091000C16C01F400510591C16C41F00101C16449
:10092000C06C694600F001000590012000900B208A
:100930000190002002904FF0904000F05DF806B06A
:1009400010BD0000000004500010024010B5044625
:10095000006801F09DF810B10221084610BD94F81E
:10096000500001280CD0012084F850002046FFF7E9
:10097000B7FC01004FF0000004D084F85000ECE711
:10098000022010BD626D40F601639A4342F480720A
:100990006265626DD20404D5A26D22F00602A265E2
:1009A00000E0A06523681C221A6084F850002068CB
:1009B000C268920105D5626D22F4005242F4805261
:1009C00062658268024B1A40121D8260C5E7000012
:1009D000C0FFFF7F70B5044600F0E0F80546601CDC
:1009E00002D004484068044400F0D8F8401BA042FC
:1009F000FAD370BD000000202DE9FC4FDFF880A184
:100A0000002301250AF1040B03244FF00F0C0BF116
:100A1000040EAEE005FA03F632406FD04F68012FA6
:100A200005D0022F03D0112F01D0122F17D1D0F8EB
:100A300008905F0004FA07F829EA08090097D1F83E
:100A40000C8008FA07F848EA0908C0F808804768E7
:100A5000B7430E79C6F300169E403E434660C66813
:100A60004FEA430804FA08F7BE4301978F6807FA74
:100A700008F73743C7604E68022E01D0122E13D1FB
:100A8000DE0800EB86060096366A5F07FF0E0CFA5A
:100A900007F926EA0906D1F8109009FA07F949EA98
:100AA0000609009EC6F820900768019EB7430E799C
:100AB00006F0030606FA08F63E4306604E68F600A6
:100AC00056D5304E376E47F001073766366E23F045
:100AD000030706F0010600962B4E3E44B146B66869
:100AE0009F074FEA17780CFA08F7BE43B0F1904F12
:100AF00005D0264FB84204D1012708E038E000278E
:100B000005E0234FB84201D1022700E0072707FA8A
:100B100008F73743C9F80870DAF800605746D1F88B
:100B2000048096435FEAC83800D516433E60DBF880
:100B300000605F46D1F8048096435FEA883800D5AC
:100B400016433E60DEF800607746D1F80480964395
:100B50005FEAC82800D516433E60094F0C373E684F
:100B6000D1F8048096435FEA882800D516433E609A
:100B70005B1C0A6832FA03F67FF44CAF00F00AB847
:100B80000004014000100240000001400004004841
:100B9000000800481CBCBDE8E08F000001488068E8
:100BA000704700000000002002488168426811443C
:100BB000816070470000002010B50024032000F081
:100BC00063F8002000F008F808B1012401E000F00B
:100BD00025F8204610BD000070B50E4E05460024D5
:100BE000706898B14FF47A71B1FBF0F00A49096866
:100BF000B1FBF0F000F098FD40B9102D06D20022B4
:100C00002946501E00F020F8356000E001242046FF
:100C100070BD0000000000200C000020094808B54D
:100C2000016E41F001010166016E01F001010091C8
:100C3000816D41F080518165806D00F080500090A1
:100C400008BD000000100240F0B40E4B1B680C46BB
:100C5000C3F30223C3F10705042D00D90425191D90
:100C6000072901D2002300E0DB1E012606FA05F168
:100C7000491E214099409E40761E16403143F0BCEB
:100C800001F04ABB0CED00E0064900F007020868DD
:100C90004FF6FF03184040EA0220034A1043086061
:100CA000704700000CED00E00000FA051649B0F5B1
:100CB000007F0868C0F3412009D0022805D00868E9
:100CC00020F4C06040F48060086000207047012874
:100CD000FBD0086820F4C06040F4007008600B4846
:100CE0003222006850430A4AB0FBF2F0401C00E098
:100CF000401E4A69520501D50028F9D148694005CE
:100D0000E3D5032070470000007000400C00002075
:100D100040420F000248006800F4C06070470000C5
:100D2000007000402DE9F84F0446002700889C4DD4
:100D30003E46000515D5E06B60B1B0F5000F04D05C
:100D4000B0F5400F2BD001270AE0E86840F480306E
:100D5000E86024E00021201D00F030FF07001ED0D5
:100D60003E462068800338D5A86D4FF00008C000CB
:100D700009D4A86D40F08050A865A86D4FF0010817
:100D800000F080500090DFF81CA2DAF8001041F467
:100D90008071CAF80010FFF701FF814610E0D5F816
:100DA0008800E16B20F440000843C5F88800D8E7CC
:100DB000FFF7F4FEA0EB0900022801D9032704E0A5
:100DC000DAF80000C005F3D5EFB33E46B8F1000FE6
:100DD00003D0A86D20F08050A8652078C00707D008
:100DE000D5F88800216A20F003000843C5F8880080
:100DF0002078800707D5D5F88800616A20F00C00BC
:100E00000843C5F888002078800607D5D5F8880003
:100E1000A16A20F440600843C5F888002088800556
:100E200007D5D5F88800616B20F440200843C5F849
:100E300088002088400509D5D5F88800A16B20F4EA
:100E40004010084300E02EE0C5F8880020784006F6
:100E500007D5D5F88800E16A20F440500843C5F86A
:100E600088002088C00507D5D5F88800216B20F4BC
:100E700040300843C5F8880020884FF000678004A0
:100E80004FF080684ED5D5F88800216C20F0406086
:100E90000843C5F88800206CB8423BD1E86840F4AC
:100EA0008010E8603EE0D5F8900010F4407014D057
:100EB000216D814211D0D5F89000D5F8901020F422
:100EC000407041F48031C5F89010D5F8901021F4AD
:100ED0008031C5F89010C5F89000C00711D0FFF719
:100EE0005DFE074641F2883907E000BFFFF756FE76
:100EF000C11B494501D9032668E7D5F89000800752
:100F0000F4D5D5F89000216D20F440700843C5F861
:100F100090005BE7404505D10121201D00F04EFE09
:100F200000B106462068400317D5D5F88800616CEB
:100F300020F040600843C5F88800606CB84204D1D6
:100F4000E86840F48010E86007E0404505D10121E1
:100F5000201D00F033FE00B106462088400411D564
:100F6000D5F88800A16C20F040500843C5F88800EF
:100F7000A06CB0F1805F05D10221201D00F01EFEA3
:100F800000B106462088000406D555F8880FE16CAC
:100F900020F0804008432860304600F005B800008B
:100FA000001002400070004018BCBDE8E08F000057
:100FB0002DE9F0470F46050058D0404E306800F04C
:100FC0000700B84209D2306820F00700384330608B
:100FD000306800F00700B84248D12878384CC00784
:100FE0002CD06868032811D0022812D0216898B14B
:100FF000490500293ADAA16821F003010143A16003
:10100000FFF7CCFD804641F2883910E02168890164
:10101000EFE721688903ECE78907EAE7FFF7BEFD00
:10102000A0EB0801494502D90320BDE8F087A0687C
:10103000696800F00C00B0EB810FEFD128788007D1
:1010400005D5A068A96820F0F0000843A0603068CA
:1010500000F00700B8420BD9306820F00700384391
:101060003060306800F00700B84201D00120DCE7B2
:101070002878400705D5A068E96820F4E0600843B7
:10108000A0602878000706D5A068296920F4605080
:1010900040EAC100A06000F03FF8A168094AC1F32E
:1010A0000311515C01F01F01C8400749086007485F
:1010B0000068BDE8F047FFF78FBD00000020024048
:1010C000001002402C2500080C0000200000002029
:1010D0000548064900688968054AC1F30221515C48
:1010E00001F01F01C84070470C00002000100240B2
:1010F0006C2500080548064900688968054AC1F35F
:10110000C221515C01F01F01C84070470C00002053
:10111000001002406C25000870B5254900231846D0
:101120008A68CC6812F00C0204F00306214C4FEAE6
:10113000640509D00C2A05D0042A32D0082A00D12F
:10114000284670BD012E10D10B681B0704D4D1F8BE
:101150009430C3F3032302E00B68C3F30313164E6A
:1011600056F82330DAB10C2AEBD1C86800F003003E
:10117000022818D0032818D01846CA68CB68C2F3D2
:101180000212C3F306234343521CB3FBF2F2C868B6
:10119000C0F34160401C4000B2FBF0F070BD184647
:1011A00070BD204670BD2046E7E72846E5E7000011
:1011B000001002400024F4003C2500082DE9F8430B
:1011C00004006FD0FE4DA86800F00C06E86800F03F
:1011D00003072078C00664D576B10C2E01D1012F0B
:1011E0000AD0A069002828687AD040F00100286061
:1011F000FFF7D4FC80465DE02868800702D5A0692F
:101200000028DED0216A2868000703D5286800F08E
:10121000F00004E0D5F89400F02202EA10108142B8
:1012200016D9084600F060FD00283BD1286840F040
:10123000080028602868216A20F0F0000843286030
:101240006868E16920F47F4040EA0120686016E0A8
:10125000286840F0080028602868216A20F0F00023
:10126000084328606868E16920F47F4040EA012073
:10127000686026B9206A00F037FD0028D5D1FFF755
:101280004BFFA968CF4AC1F30311515C01F01F0164
:10129000C840CD490860CD480068FFF79DFC002894
:1012A0007ED12EE0CAE000BFFFF778FCA0EB08007B
:1012B000022876D828688007F6D5286840F008000C
:1012C00028602868216A20F0F000084328606868D8
:1012D000E16920F47F4040EA0120686011E0FFE707
:1012E00020F001002860FFF759FC804606E000BFAF
:1012F000FFF754FCA0EB08000228DAD82868800722
:10130000F6D42078C00740D0082E18D00C2E01D17A
:10131000032F14D06068B0F5803F17D0B0F5A02F30
:10132000286817D020F480302860286820F48020B6
:1013300028606068E0B1FFF731FC804614E028685F
:10134000800322D56068002878D01EE0286840F429
:101350008030EDE740F480202860F7E7FFF71EFCBF
:10136000A0EB08006428A4D828688003F6D50CE018
:10137000FFF714FC804605E0FFF710FCA0EB080027
:10138000642896D828688003F6D4207880073BD557
:10139000042E11D00C2E01D1022F0DD0E06801E0F7
:1013A000B6E1FFE0002828681ED040F48070286075
:1013B000FFF7F4FB07460CE0286840050CD5E06811
:1013C0000028C1D008E000BFFFF7E8FBC01B0228DF
:1013D00093D828684005F7D56868217C20F0F8503C
:1013E00040EA016068600FE020F480702860FFF739
:1013F000D5FB074605E000BFFFF7D0FBC01B022866
:10140000B1D828684005F7D42078000729D560694D
:101410000028D5F8940012D040F00100C5F89400DF
:10142000FFF7BCFB074604E0FFF7B8FBC01B022830
:1014300099D8D5F894008007F6D512E02BE120F07A
:101440000100C5F89400FFF7A9FB074605E000BFBF
:10145000FFF7A4FBC01B022885D8D5F894008007AD
:10146000F6D42078400766D5A86D0027C00008D4C0
:10147000A86D40F08050A865A86D012700F080504D
:10148000009053480168C90512D40168814641F4AF
:1014900080710160FFF782FB804605E0FFF77EFB6D
:1014A000A0EB080002287DD8D9F80000C005F5D5CA
:1014B000A068012816D00528D5F8900017D020F094
:1014C0000100C5F89000D5F8900020F0040000BF9E
:1014D000C5F89000A06841F28839C0B1FFF75EFB03
:1014E00080460FE0D5F8900040F00100F0E740F0B2
:1014F0000400C5F89000F5E7FFF750FBA0EB0801EA
:1015000049454FD8D5F890008007F5D50EE0FFF794
:1015100045FB804606E000BFFFF740FBA0EB08015B
:1015200049453FD8D5F890008007F5D41FB1A86D84
:1015300020F08050A8652078800628D5606A0028B1
:10154000D5F8980012D040F00100C5F89800FFF7D8
:1015500025FB074605E000BFFFF720FBC01B022864
:1015600020D8D5F898008007F6D510E020F00100CB
:10157000C5F89800FFF712FB074604E0FFF70EFBE3
:10158000C01B02280ED8D5F898008007F6D4A06AB0
:10159000A8B1022824D00C2E7DD0286820F08070BD
:1015A000286000E0B3E02868000103D4E86820F078
:1015B0000300E860E86807490840E8600CE09FE045
:1015C000001002402C2500080C0000200000002024
:1015D00000700040FFFFEEFEFFF7E0FA044699E0DE
:1015E000E868E26A00F00301914226D1216B00F025
:1015F00070020901103991421FD1626B00F4FE4163
:10160000B1EB022F19D194F8382000F07841B1EBFA
:10161000C26F12D1A18F00F4C00249084905A1F59B
:101620000011914209D194F8401000F0C0604908BF
:101630004906A1F1007181424BD00C2E6FD0286871
:1016400040016CD4286820F080702860FFF7A6FA6B
:10165000064604E0FFF7A2FA801B022857D8286844
:101660008001F7D4F4E90B016FF00F0202EB0111D6
:101670000843218A5204490802EB4151A26841EA19
:1016800002210843217D4FF07E42490802EB41616F
:101690000843217B00E042E040EAC160E968214A5A
:1016A00011400843E860286840F080702860E868CE
:1016B00040F08070E860FFF771FA044605E000BF73
:1016C000FFF76CFA001B022821D828688001F7D5A3
:1016D00023E02868800120D4286840F080702860CA
:1016E000E86840F08070E860FFF758FA044604E0CC
:1016F000FFF754FA001B022809D828688001F7D5A3
:101700000BE000BFFFF74AFA001B022802D90320B2
:10171000BDE8F88328688001F4D40020F8E70120B0
:10172000F6E700008C809D0110B5401EB0F1807F6F
:1017300001D3012010BD4FF0E02460610F2160173C
:1017400000F0EAFD0020A06107202061002010BD0C
:10175000F0B590F83C20012A29D0012480F83C40C3
:10176000022280F83D2003685A689D68114EB342FA
:1017700003D122F470074A683A4322F070070A68DE
:101780003A435A600268B24205D0B2F1804F02D0AB
:10179000094B9A4204D1896825F08003194391606E
:1017A00080F83D40002180F83C100846F0BD022042
:1017B000F0BD0000002C01400040014010B50400C5
:1017C00003D094F83D0010B107E0012010BD0020C7
:1017D00084F83C00204600F00DF8022084F83D001B
:1017E000211D206800F020FB012084F83D0000202E
:1017F00010BD000008B500680649884208D10648B7
:10180000016E41F400610166006E00F4006000901A
:1018100008BD0000002C01400010024070B50446D5
:1018200090F83C00012817D0012584F83C50022094
:1018300084F83D00226890682E4B184020F47F40C9
:1018400090600868502830D00DDC20284DD005DC91
:1018500098B310283BD148E0022070BD302844D016
:10186000402834D139E0602828D0702806D0B0F55F
:10187000805F2CD0B0F5005F29D10AE0CB68D1E9B8
:101880000121206800F006FB2068816841F07701A3
:1018900009E0CB68D1E90121206800F0FBFA20685B
:1018A000816841F48041816011E0CA68496820681C
:1018B00000F002FB5021206807E016E0CA68496882
:1018C000206800F00AFB6021206800F0EDFA84F83F
:1018D0003D50002084F83C0070BDCA68496820680B
:1018E00000F0EAFA40212068EFE72268014610463E
:1018F000EBE7000088FFFEFF10B5040002D0606F28
:1019000010B107E0012010BD002084F870002046CF
:1019100000F026F8242060672068016821F00101AA
:101920000160204600F07CFB0128ECD0606A10B119
:10193000204600F0E4FA2068416821F490414160BB
:101940002068816821F02A0181602068016841F0E7
:10195000010101602046BDE8104000F034BB0000EA
:1019600010B586B0044614216846FEF766FC13499C
:10197000206888421FD11248816D41F40031816591
:10198000816D01F400310591C16C41F00101C16428
:10199000C06C694600F0010005900C200090022008
:1019A00001900020029003200390072004904FF044
:1019B0009040FFF721F806B010BD00000044004041
:1019C000001002402DE9F8430446406F1F461646BA
:1019D0000D4620284FD1CDB1C6B194F87000012832
:1019E00049D0012084F870004FF00008C4F87C80D2
:1019F00021206067FFF7D2F8A4F850608146A4F870
:101A00005260A068B0F5805F03D004E00120BDE81B
:101A1000F883206928B12E465FF0000584F87080B5
:101A200010E00026FAE78021204600F00DFCB8B94E
:101A3000C6B116F8010B21680885B4F85200401EA3
:101A4000A4F85200B4F852004B464FF00002009741
:101A50000028E8D14FF04001204600F0F5FB30B1FE
:101A60000320D4E735F8020BC0F30800E3E7202099
:101A700060670020CBE70220C9E7FEE700EB8100AA
:101A8000006E00F0F84070478068C0F3C0007047F7
:101A90008068C0F380007047042303EAD15310B577
:101AA00018444369C1F3045107248C40A3438A407E
:101AB0001343436110BD00EB8100016E21F0004132
:101AC000114301667047000030B587B018216846A1
:101AD000FEF7B3FB154814490024C0E900148460E4
:101AE0000425C460C0E90445047644760121C1613F
:101AF00080F82040C0E90914C46280F83040446393
:101B000080F83840FEF71EFE094800900620CDE917
:101B100001047F200594CDE9030569460348FEF7DB
:101B200015FC07B030BD000000000450100000207C
:101B30002000F01410B588B00024124805940694D3
:101B400003940494009401940D490294C0E9001494
:101B50008460C460046144618461FFF72FFE4FF428
:101B60008050039003A90748FFF758FE00940194A2
:101B7000694604480294FFF7EBFD08B010BD000071
:101B8000002C0140740000200948084901604FF40E
:101B9000E1314160002181600C22C160C0E9041282
:101BA0008161C16101624162FFF7A6BE004400404D
:101BB000B4000020FEE77047704700002DE9F041B7
:101BC000444C05468846E0680026810728680DD009
:101BD000E16801F00301814216D1A8B1E0686968AB
:101BE000C0F30210401C88420ED120E0012804D02E
:101BF000022805D0032807D108E02168890701E001
:101C000021684905002907DB01265FE02168890377
:101C100002D421684903F5E7E1686A686FF00F03B1
:101C200021F0730103EB021211430143E1602068CC
:101C300020F080602060FEF7B1FF074605E000BF9E
:101C4000FEF7ACFFC01B022837D820680001F7D48C
:101C5000B8F1000F18D0B8F1010F1DD0287D4FF05A
:101C60007E41400801EB4060A96840EA01202169FB
:101C7000194A114008432061206840F080602060CC
:101C8000FEF78CFF07461AE0A868297B000240EAAD
:101C9000C1602169114AECE7288A1149400801EB2B
:101CA0004050A96840EA012021690E4AE1E700BFDF
:101CB000FEF774FFC01B022801D9032606E0206846
:101CC0000001F5D52069A969084320613046BDE8C7
:101CD000F081000000100240FF80FFF9FF80FF0745
:101CE0000000E0FFFF809FFFF8B51C4D0646002472
:101CF000A86DC00002D5FFF70DF80DE0A86D40F00B
:101D00008050A865A86D00F080500090FFF702F8A1
:101D1000A96D21F08051A965B0F5007F04D0802E17
:101D200007D94FF003040AE0802E08D9A02E01D86D
:101D300004E001D1022402E0702E00D10124084801
:101D4000016821F0070121430160006800F00700ED
:101D5000A04201D00120F8BD0020F8BD00100240D3
:101D6000002002407047FEF71FBF30B5ABB04421E2
:101D700015A8FEF762FA142126A8FEF75EFA542190
:101D80006846FEF75AFA1020159000247020CDE91D
:101D90001C4001251B9515A81F94FFF70FFA0F2073
:101DA000CDE9260428942994002126A82A94FFF737
:101DB000FFF844F202000090C00612900820CDE91E
:101DC0000250099407200490022001950590069086
:101DD000C00507906846FEF7A5FF6802FEF766FF9C
:101DE0002BB030BD0D48016841F4700101600C4812
:101DF000016841F001010160002181600268094B26
:101E00001A4002608214C260026822F480220260DA
:101E100081610249C00380390860704788ED00E0A5
:101E200000100240FFFFF6EA70B50268164B4FF053
:101E30008046984201D0B04203D122F070044A6833
:101E40002243124C124D984205D0B04203D0A0421A
:101E500001D0A84203D122F44076CA6832434E69C9
:101E600022F08002324302608A68C2620A6882629B
:101E7000984203D0A04201D0A84201D10969016370
:101E80000121416170BD0000002C01400040014073
:101E90000044014010B5846842EA032224F47F44E0
:101EA0000A432243826010BD826822F070020A4316
:101EB00042F007018160704710B5036A046A24F09C
:101EC00001040462846924F0F00444EA021423F05B
:101ED0000A020A438461026210BD10B5036A23F04E
:101EE000100303628369046A23F4704343EA0232F5
:101EF00024F0A00343EA01118261016210BD90F851
:101F00002410C90706D001684A68836A22F40032A7
:101F10001A434A6090F82410890706D501684A6878
:101F2000C36A22F480321A434A6090F824104907A9
:101F300006D501684A68036B22F480221A434A607E
:101F400090F82410090706D501684A68436B22F40B
:101F500000421A434A6090F82410C90606D5016869
:101F60008A68836B22F480521A438A6090F82410A6
:101F7000890606D501688A68C36B22F400521A43A9
:101F80008A6090F82410490611D501684A68036CEC
:101F900022F480121A434A60016CB1F5801F06D109
:101FA00001684A68436C22F4C0021A434A6090F800
:101FB0002410090606D501684A68806C22F40022C4
:101FC00002434A607047F8B500260446C667FEF72C
:101FD000E5FD0546206800686FF07E47000708D5DC
:101FE0002B4600224FF400112046009700F02CF9F8
:101FF00060B92068006840070AD52B4600224FF4DC
:1020000080012046009700F01FF908B10320F8BDB9
:1020100020206067A06784F870600020F8BD000091
:102020002DE9F041044600682369A268E5691A4376
:10203000636900272B431A437A4903687A4D2B4082
:102040001343036020684268E36822F440521A4355
:1020500042602268A0698A4201D0236A18439368CB
:1020600023F4306303439360704B226870489A42B4
:102070000DD1D0F8880010F0030006D0012838D028
:10208000022834D0032821D135E001251FE0694B17
:102090009A420BD1D0F8880010F00C0025D004280B
:1020A00027D0082823D00C2810D124E08A420DD153
:1020B000D0F8880010F4406017D0B0F5806F18D0C9
:1020C000B0F5006F13D0B0F5406F14D010255A4B07
:1020D00000264FF400408A4245D175B1022D0FD041
:1020E000042D0FD0082D18D10FE00025EFE70225B1
:1020F000EDE70425EBE70825E9E7FEF7E9FF03E054
:10210000184602E0FFF708F8A8B3626802EB420144
:10211000814202D8B0EB023F01D901276FE0DFF81E
:102120001C815DB1022D0CD0042D13D0082DF4D1EB
:1021300050082905401846F1000105E0FEF7C8FFE8
:102140000AE050083E49F5E70023FEF73BF8A0F50A
:10215000407150E0FEF7E0FF6268010E0302500894
:1021600018187141F0E7E1694FF6EF7881422FD1FD
:10217000092DD2D200E042E0DFE805F00609200593
:10218000230505052600C8E7FEF7A2FF01E0FEF7DC
:10219000B1FF4100D4F8040001EB5001B1FBF0F0B5
:1021A00080B2A0F110014145B7D84FF6F07101405F
:1021B000C0F3420001432068C16020E0214960680B
:1021C000EAE7FEF7A9FFE4E74FF480316068E3E750
:1021D000092DA2D2DFE805F0060918051E05050540
:1021E00020009AE7FEF774FF16E0FEF783FF13E086
:1021F00080B2A0F1100141458FD82168C8602666E1
:1022000038466666BDE8F081606803EB5001B1FBBB
:10221000F0F0EDE7FEF780FF616800EB5100B0FBE6
:10222000F1F0E5E700800040F369FFEF003801407E
:1022300000100240004400400024F400FFFC0F00A6
:10224000000024F40048E8012DE9F0479A461746BB
:102250000E4604464FF000094FF02008089D39E073
:10226000681C37D0FEF79AFCA0EB0A00A84222D8DF
:102270000DB32068016849072CD5C069C04300052B
:1022800028D421684FF4006008622068016821F4B6
:10229000D07101602068816821F001018160C4F87B
:1022A0007480C4F87880C4F87C8000BF84F8709093
:1022B0000320BDE8F0872068016821F4D071016037
:1022C0002068816821F001018160C4F87480C4F83D
:1022D0007880EBE72068C06936EA000004D000206F
:1022E000B842BDD00020E4E70120F9E7FEE7000096
:1022F0000FB4084B10B504A902AA039800F02CF8FB
:10230000044602A9002000F0D4F8204610BC5DF875
:1023100014FB0000B32400080907090E002804DBA1
:1023200000F1E02080F80014704700F00F0000F189
:10233000E02080F8141D704702E008C8121F08C191
:10234000002AFAD170477047002001E001C1121F36
:10235000002AFBD1704700002DE9FF4F89B09B4652
:102360000446002506E025280BD05A460B999047D5
:10237000641C6D1C20780028F5D10DB0284600F0B3
:1023800095B80027B8460122474900E0074314F8F2
:10239000013F203B02FA03F00842F7D120782E28B3
:1023A00019D114F8010F47F004072A280ED06FF056
:1023B0002F022078A0F1300109290CD808EB880100
:1023C00002EB410100EB0108641CF2E70A98641C6F
:1023D00050F8048B0A9020780028CED0642808D0CA
:1023E000692806D075281ED05A460B9990476D1C57
:1023F00058E00A994FF00A0901C90A91002802DA47
:1024000040422D2102E0390504D52B218DF8201002
:10241000012103E0F90704D02021F7E78A4608AE3E
:102420000DE00021FAE70A994FF00A0901C90A9163
:10243000F7E74946FDF70CFF303106F8011D00288B
:10244000F7D1ADEB060000F12009780701D44FF079
:102450000108C84502DDA8EB090000E00020804625
:10246000002706E008A85A46C05D0B9990476D1CEE
:102470007F1C5745F6DB04E030205A460B99904705
:102480006D1CB8F10001A8F10108F5DC05E016F8B3
:10249000010B5A460B9990476D1CB9F10001A9F147
:1024A0000109F4DC641C65E70928010030BCBDE8C3
:1024B000C08F0A68531C0B60107070470EB50A205D
:1024C0008DF80400FEF778FBFFF74FFC1348C16C52
:1024D00041F00101C164C06C00F001000290FFF7FF
:1024E000F3FAFFF751FBFFF725FB4FF4FA740C48A2
:1024F000FEF72CFA0A48FEF722F9024609A16846BF
:10250000FFF7F6FE0648C82305226946A430FFF708
:1025100059FA2046FEF75EFAE9E700000010024093
:102520001000002025640D0A0000000000000000DB
:10253000000000000102030406070809A08601004C
:10254000400D0300801A060000350C0040420F00C9
:1025500080841E0000093D0000127A000024F4006F
:1025600000366E010048E801006CDC02000000004B
:102570000102030494250008000000201000000060
:1025800038230008A42500081000002028050000BA
:1025900048230008100000000100000000000000B7
:0425A00000093D00F1
:040000050800018D61
:00000001FF
